{"abi":[{"type":"constructor","inputs":[{"name":"implementation","type":"address","internalType":"address"},{"name":"messenger","type":"address","internalType":"address"},{"name":"trasmitter","type":"address","internalType":"address"},{"name":"usdc","type":"address","internalType":"address"}],"stateMutability":"nonpayable"},{"type":"fallback","stateMutability":"payable"},{"type":"receive","stateMutability":"payable"},{"type":"function","name":"receiveMessage","inputs":[{"name":"message","type":"bytes","internalType":"bytes"},{"name":"attestation","type":"bytes","internalType":"bytes"}],"outputs":[{"name":"received","type":"bool","internalType":"bool"}],"stateMutability":"nonpayable"},{"type":"function","name":"receiveMessage","inputs":[{"name":"receiver","type":"address","internalType":"address"},{"name":"message","type":"bytes","internalType":"bytes"},{"name":"attestation","type":"bytes","internalType":"bytes"},{"name":"fee_in_usdc","type":"uint256","internalType":"uint256"}],"outputs":[{"name":"received","type":"bool","internalType":"bool"}],"stateMutability":"nonpayable"}],"bytecode":{"object":"0x60803461011057601f61081938819003918201601f19168301916001600160401b0383118484101761011557808492608094604052833981010312610110576100478161012b565b906100546020820161012b565b9061006d60606100666040840161012b565b920161012b565b7f46e5b76fa5812da972ac2243cafd26236a072d9ff0770f97bad20263935dd600929092557f46e5b76fa5812da972ac2243cafd26236a072d9ff0770f97bad20263935dd601557f46e5b76fa5812da972ac2243cafd26236a072d9ff0770f97bad20263935dd602556001600160a01b03167f360894a13ba1a3210667c828492db98dca3e2076cc3735a920a3ca505d382bbc556040516106d990816101408239f35b600080fd5b634e487b7160e01b600052604160045260246000fd5b51906001600160a01b03821682036101105756fe60806040526004361015610015575b3661066157005b60003560e01c806357ecfd28146100355763b292b60f0361000e57610157565b346101245760403660031901126101245760043567ffffffffffffffff811161012457610066903690600401610129565b6024359067ffffffffffffffff8211610124576100896020923690600401610129565b93909160006001600160a01b038561009f610237565b015116926100c360405197889687958694630afd9fa560e31b865260048601610337565b03925af1801561011f576100ec916000916100f0575b5060405190151581529081906020820190565b0390f35b610112915060203d602011610118575b61010a8183610215565b8101906102fe565b826100d9565b503d610100565b610361565b600080fd5b9181601f840112156101245782359167ffffffffffffffff8311610124576020838186019501011161012457565b34610124576080366003190112610124576004356001600160a01b03811681036101245760243567ffffffffffffffff81116101245761019b903690600401610129565b90916044359167ffffffffffffffff8311610124576100ec936101c56101d1943690600401610129565b929091606435946104b9565b60405190151581529081906020820190565b6060810190811067ffffffffffffffff8211176101ff57604052565b634e487b7160e01b600052604160045260246000fd5b90601f8019910116810190811067ffffffffffffffff8211176101ff57604052565b60405190610244826101e3565b7f46e5b76fa5812da972ac2243cafd26236a072d9ff0770f97bad20263935dd600546001600160a01b0390811683527f46e5b76fa5812da972ac2243cafd26236a072d9ff0770f97bad20263935dd60154811660208401527f46e5b76fa5812da972ac2243cafd26236a072d9ff0770f97bad20263935dd60254166040830152565b906040516102d3816101e3565b82546001600160a01b0390811682526001840154811660208301526002909301549092166040830152565b90816020910312610124575180151581036101245790565b908060209392818452848401376000828201840152601f01601f1916010190565b92906103509061035e9593604086526040860191610316565b926020818503910152610316565b90565b6040513d6000823e3d90fd5b1561037457565b60405162461bcd60e51b815260206004820152600c60248201526b155b985d5d1a1bdc9a5e995960a21b6044820152606490fd5b156103af57565b60405162461bcd60e51b815260206004820152600e60248201526d149958d95a5d994819985a5b195960921b6044820152606490fd5b909291928360741161012457831161012457607401916073190190565b906064116101245760440190602090565b359060208110610421575090565b6000199060200360031b1b1690565b634e487b7160e01b600052601160045260246000fd5b624c4b40019081624c4b401161045857565b610430565b9190820180921161045857565b1561047157565b60405162461bcd60e51b8152602060048201526013602482015272125b9cdd59999a58da595b9d08185b5bdd5b9d606a1b6044820152606490fd5b9190820391821161045857565b92949190946104c930331461036d565b60206104f47f46e5b76fa5812da972ac2243cafd26236a072d9ff0770f97bad20263935dd6006102c6565b8181015190929061051b9061050f906001600160a01b031681565b6001600160a01b031690565b8460008a61053f6040519b8c9687958694630afd9fa560e31b865260048601610337565b03925af1801561011f5761050f61050f604061058d610587610581886105cf996106049e61057c60209f9a6105c99b600091610642575b506103a8565b6103e5565b90610402565b90610413565b966105988160011c90565b90624c4b40821115610633576105ae9150610446565b945b6105bb86891161046a565b01516001600160a01b031690565b926104ac565b60405163a9059cbb60e01b81526001600160a01b03909316600484015260248301529092839190829060009082906044820190565b03925af190811561011f5760009161061a575090565b61035e915060203d6020116101185761010a8183610215565b61063c9161045d565b946105b0565b602061065b92503d6020116101185761010a8183610215565b38610576565b6000807f360894a13ba1a3210667c828492db98dca3e2076cc3735a920a3ca505d382bbc54368280378136915af43d6000803e1561069e573d6000f35b3d6000fdfea26469706673582212204c93911179e8d8f54e8731d69a79c4a98ca0495d10872f4623b605dbf7105d7064736f6c634300081a0033","linkReferences":{}},"methodIdentifiers":{"receiveMessage(address,bytes,bytes,uint256)":"b292b60f","receiveMessage(bytes,bytes)":"57ecfd28"},"id":0}